:020000040000fa
:080000000002040000000000f2
:020000040000fa
:10040000cfb32000007f2200000188000000000020
:100410000c00070060282100010020001f000700d9
:10042000000020000000e000020032000000020096
:10043000000000000a0f0200000000000040da0087
:100440000000fe004440a900c00620000000e000bb
:100450000300320000002000a00188004440a800f2
:1004600000000600f03fb1000180b1000600350039
:10047000ee03090000000000403fb1000180b10020
:10048000fbff3d001000b000203fb000020035002f
:1004900000800900000000000000060091018800b3
:1004a000800078000000eb0015003700e28040007b
:1004b00032a0b4009101ba00e280400032a0b40042
:1004c0009102ba00e280400032a0b4000002eb00ca
:1004d000472bde00f507b200602ce10004003a0073
:1004e0000059eb008301e900fdff3e0004003700e6
:1004f0006128e100010032000082eb0004000700e7
:100500001101ba000200e000e8ff3a000000060016
:100510003159ba008301e9000c0032002159ba00b8
:100520008301e900080032000400e00003003a0003
:10053000e280400032a0b400f5ff370011d9ba00c4
:100540008301e900faff3a008100e800e180400001
:1005500032a0b400000006000a00fa0044002000a7
:10056000b4bf9f00c0bf9f00d2bf9f00e3bf9f00ea
:10057000f1bf9f006a80570000c0da005fb89700a3
:10058000efb897000080fa00000006000a00fa00a9
:1005900080017800e20f500028003e00c059800022
:1005a000e10f500008003200802320000000e0002e
:1005b00005003200042320002523200046232000cc
:1005c000800178000400370004222000252220004a
:1005d0004622200083222000144090000004e00006
:1005e000040035008009eb00144090000074a00066
:1005f00010429800154090000028a30003003a0024
:10060000154090000024a000904298008001eb006b
:1006100007003700154090000008a300fdff3200de
:1006200063c078000000fb00000b78008301e80045
:10063000828f5100f7ff3a00080037003000200099
:10064000b0bf9f00c3bf9f00d1bf9f00e2bf9f000c
:100650006a80570000c0da006fb997000200780086
:100660000080fa0000000600889fbe008004780029
:10067000d05980000000e00003003a00100007009d
:100680000000e0000a003500d05980000900e000b9
:1006900002003a00000478000600370000047800e9
:1006a00009004000060007000000e00001003d00d6
:1006b0000084eb00080078004f04be000000060034
:1006c000800078000000e00004003a0000002000f4
:1006d000d059880001017800060037000081eb0046
:1006e00000002000808f500002003e00d159880099
:1006f0000001eb000200780000000600881f78006f
:10070000000478005001be004000be00040040001c
:10071000858048000601490087814900009cbe0091
:100720000294be000400e1000588e1000690e100ab
:100730000798e10002003100680044001008e8005a
:100740004f04780000000600f4874700889fbe0031
:100750008a9fbe008c9fbe008e1f78000205be00df
:100760000004be00d4b79f00e5b79f00f6b79f0016
:1007700087bf9f000000eb00c0b79f00b0b79f008d
:10078000a0b79f0090b79f0080b79f000d04200086
:10079000bfb097004fb09700000140000000e0009c
:1007a0000f003d004f08de0000007100c0b79f0041
:1007b0009e00070001003d0012002000a10007007c
:1007c00001003d0012002000a6000700b100070054
:1007d000b60007000f004000c8ff070022003700e6
:1007e0004f08de0000067100ccb79f008f000700a5
:1007f00001003d00120020009200070001003d00b2
:100800001200200097000700a20007000fb2970017
:100810009fb297002fb39700bfb39700a9000700be
:100820000000520081805a0002015b0083815b005e
:1008300080b79f0091b79f00a2b79f00b3b79f00fa
:100840000007eb009f0007000020e10001a8e10085
:1008500002b0e10003b8e100010031001e002000f9
:100860000e005600c0b79f004fb297000400e00092
:100870000700350010002000010020006011b800c2
:1008800008047000898470000a0571008b8571006e
:100890008d06e900beff3a000400e00003003d00c1
:1008a000820007000f00400094ff07004fa8970048
:1008b0000000e00004003a000fb497009fb49700d6
:1008c0002fb59700bfb59700940007004f07780039
:1008d0004f06be004f05be004f04be004f01b100e1
:1008e00000000600881f780018002000881f78008c
:1008f00095ff07008f87e9004f047800000006008d
:10090000801feb0090ff07008f87e90000000600c2
:10091000889fbe008a9fbe008c1f78006e00070073
:1009200007003d0073000700e00f5b00e08f5b00f5
:1009300007003d00320007000006eb00040037000e
:100940003400070002003d002a0007001c002000c0
:1009500072000700e3ff07000203be000002be00b2
:100960000c00e00001003200220007000400be007d
:100970000601be004f0678004f05be004f04be00c2
:1009800000000600889fbe008a9fbe008c1f780072
:100990005100070005003d0056000700e00f5b0016
:1009a000e08f5b0006003d000400370019000700df
:1009b00003003d006000b8006011b800100007009f
:1009c00056000700ceff07000203be000002be0073
:1009d0000c00e00001003200060007000400be0029
:1009e0000601be004f0678004f05be004f04be0052
:1009f000000006006000b8006011b8000000370079
:100a0000040250008582580006035900878359006c
:100a1000000006000006eb00e00f5200e08f5a00d5
:100a2000e00f5b00e08f5b000000060001804000eb
:100a300090b79f000001eb008fb097000100e0002d
:100a4000000006000200700090b79f000180400087
:100a500080b79f000001eb00ffa897000100e000b5
:100a6000000006000200700080b79f000180400077
:100a70006faa9700cf20de0001007000f0af9f004a
:100a800004024200250007004f18de000002720039
:100a900000000600e4af9f000804440089844c0075
:100aa0000a054d008b854d00000006003fb29700ff
:100ab000cfb297005fb39700efb3970000fe2f000f
:100ac000000006003fb09700cfb097005fb19700dd
:100ad000efb19700000006000205be000004be0052
:100ae000e00f5000e08f5800e00f5900e08f5900f0
:100af000000006006000b8006011b8000804500053
:100b0000898458000a0559008b8559001c00200073
:100b1000e00f5200e08f5a00000006000800be00ff
:100b20000a01be00000006000c00fa00889fbe000b
:100b300000047800cfb09700f0ff2700d0bf9f00df
:100b40008004eb0099bf9f0088bf9f00a8bf9f0053
:100b5000200c2000b0bf9f007881570070805700a4
:100b6000080007000fb89700094878000fb89700f1
:100b700008045000080078004f04be000080fa000e
:100b800000000600fe874700889fbe008a9fbe00c7
:100b90008c9fbe008e1f7800f0b79f000107780081
:100ba00082bf9f000000eb00b0b79f00e602370055
:100bb0008006eb0050c2b30080cf50000900320025
:100bc0000100fb00ffb09700ea020700e10f4000c0
:100bd000dd023200bfb097008100e800b1b79f008e
:100be000d90237009e407800b0c2b30080cf5000d9
:100bf0001300320007003c006b40500080cf5000d3
:100c00000d0032006340400080cf500013003a00d6
:100c10000d003700d0c2b30080cf50000400320076
:100c20006340400080cf50000c003a0008003700bd
:100c30000d30a000070037000d00a00005003700b0
:100c40000d10a000030037000db0a0000100370018
:100c50000d20a0000e07e800e2ff37000d18a300ea
:100c6000010032000d00a1000d38a3000100320088
:100c70000d20a1000100fb0002fd2f00020040003a
:100c8000e90f50000e003e000002eb00d4af9f00c1
:100c9000820178005fae97006a60b9001e01fb0018
:100ca0000001410003014100d2af9f005e00fb0044
:100cb00003004000e90f50000b003e00f5ff370035
:100cc0000000eb00d0af9f00a0c2b30080cf500067
:100cd00005003a008fb897004101780081bf9f005e
:100ce000d2af9f000e07e8000002eb00c4b79f00e0
:100cf000e0c2b3009e4f100018003a000de0a000c3
:100d00008e00e80064405000914f10000200320055
:100d1000010778000c0037000fbe97004c007800e8
:100d20008cbf9f00c0b79f000e87e8000b00370004
:100d30004fb297006a20b900000041000300400054
:100d4000c0b79f000e07e8001e01fb0003fd2f0047
:100d500003004100e90f5000f5ff3600be40780067
:100d6000e1d79f00c0c6b30080cf50002200320000
:100d70000f003c006940500080cf500077003200e7
:100d800004003c000104e000730232006b4050009c
:100d90000f00370040c6b30080cf500093003200f0
:100da0006540400080cf50008b003a008f00370034
:100db00030c7b30080cf50001a00320007003c005b
:100dc0006440500080cf5000110032000040e80025
:100dd00080cf500080003a000f00370050c7b300aa
:100de00080cf5000800032006340400080cf500030
:100df00079003a0009003700000028000d48a300e0
:100e000001003a000001200080867600d3ff370001
:100e10000d60a000750037000d50a0000d70a000ff
:100e2000720037000fbe97004c0078008cbf9f0007
:100e3000000478000000e00001003a0088b02000c3
:100e40008004eb00010037008104e800890078008d
:100e5000088044001004e000fbff3a004fb0970008
:100e60000000e00003003200890f50000100310053
:100e7000800478008000eb00e1af9f005fa997003d
:100e8000890f51000200360009005100e0af9f00b9
:100e90004368de00e10660001b003a000d067800a2
:100ea00009003700ffb09700000220003102070060
:100eb000e10f4000030032003fb297000402e80057
:100ec000b4b79f000c06e8006fa89700800f56008b
:100ed000f4ff3a008080eb00e1af9f000a0037008a
:100ee000880078003100fb0001047800ffb0970013
:100ef00020020700e10f4000030032003fb19700dd
:100f00000201e800b2b79f000900e9008004780000
:100f1000e10f4000f2ff3a000006eb000d00e00098
:100f20000a003a0008023700ffb0970000022000d4
:100f300010020700e10f4000030032003fb29700ab
:100f40000402e800b4b79f000c06e8006fa8970001
:100f5000800f5600f4ff3a00fb0137008fb897006e
:100f60004100780081bf9f00cf80de000101780042
:100f7000820178000205be000004be000203be002c
:100f80000002be004822de00482edd00040276008a
:100f9000e4d79f000d48a3000a0032000404e000db
:100fa00008003200e14f42000600320071fd2f00c0
:100fb0000f80400004487800184098002900200065
:100fc00002003700f0d79f001900200072fd2f00ab
:100fd0000f044100a1ff370064fd2f000f04420001
:100fe000190020009dff37000d0cb3000d007800a4
:100ff000000cb20028003a000d00e00005003d00a2
:101000000fbe97004c05be004c04be008cbf9f0075
:10101000140037000d48a3000b0032000fb99700f1
:101020004200be0082bf9f004f89de00cf91de00ec
:101030000002be0002037800820378000605be00ad
:101040000404be00070037000fba97004400780080
:1010500084bf9f0000047800cfc4de00090578003b
:101060008a057800e00f5400e08f5c00e00f5d001f
:10107000e08f5d001f003d003d00b3006000b80040
:101080006011b80008045000898458000a0559000e
:101090008b855900170037000d00e00005003d006a
:1010a0000fbe97004c05be004c04be008cbf9f00d5
:1010b000100037000d48a300070032000fba970058
:1010c0004400be0084bf9f006011b8000205be004e
:1010d0000004be00070037000fbe97004c007800e8
:1010e0008cbf9f0000047800090020000a00200047
:1010f0000b0020004fb097000000e00007003a000e
:10110000e00f5400e08f5c00e00f5d00e08f5d00b9
:1011100002003a0011002000c1b79f000d017800c5
:10112000020cb200e2b79f0000042000800f5100c3
:101130002d00320003003c000200e00008003200f5
:101140003a003700000820006fb29700800f52006d
:1011500014003200000c2000800f520033003a00cf
:1011600014c0b30085a620000b0037000400fb006c
:101170004300dd00050040005001be004000be00fd
:101180000040e10001c8e10002d0e10003d8e10025
:10119000250039000442e800f44f5200f3ff3a0002
:1011a0002100370014c0b300859e20000b003700db
:1011b0000400fb004300dd00050040005001be00bc
:1011c0004000be000040e10001c8e10002d0e100a3
:1011d00003d8e100140039000442e800f04f520047
:1011e000f3ff3a001000370014c0b30085932000cd
:1011f0000b0037000400fb004300dd000500400049
:101200005001be004000be000040e10001c8e10006
:1012100002d0e10003d8e100030039000442e800f5
:10122000f64f5200f3ff3a00e4d79f006fd69700c5
:101230000c00fb00cfb09700810f500002003d0072
:10124000e1d79f00040037004fb19700800f510095
:1012500001003d00c0b79f005faa97000400e000b6
:101260000400320063806600020032000402e900dc
:10127000d4af9f000de8a3000b0032005fae9700d3
:101280004fb09700800f560003003c008000eb0039
:10129000d1af9f00040037005fa997004fb29700bd
:1012a00004015100d2af9f00408c200000806600f6
:1012b00001842000810f500006003a005fae9700c5
:1012c0000c00e000110032000c06e900dcaf9f00ca
:1012d0000e003700008c200000806600018820008e
:1012e000810f500009003a005fa89700e20f5000fc
:1012f00003003c008000eb00d1af9f0003003700eb
:101300005fa997000281e900d2af9f006fd29700da
:101310000400fb000006eb00dcb79f00dfa897008d
:10132000808f50000200340000805000d0b79f0032
:101330000d28a30053003200e18066000d18a300c1
:101340000c003200d00220000100e00001003a0051
:101350000080e900ffb0970006010700e10f4000a0
:10136000270032003fb197000201e800b2b79f00aa
:10137000230037000100e00009003200ffb09700b1
:1013800000022000fb000700e10f40001c003200bb
:101390003fb297000402e800b4b79f00180037007e
:1013a000008c20000080660001882000810f500022
:1013b00013003a00ffb0970000032000ed00070083
:1013c000e10f4000030032003fb697000c06e80032
:1013d000bcb79f00800520000d58a30001003a0013
:1013e00080072000ffb09700e2000700e10f4000f7
:1013f000030032003fb097000000e800b0b79f0044
:10140000dfb097000100e0000f0032000006eb00a3
:10141000ffb0970000032000d6000700e10f400056
:10142000030032003fb197000201e800b2b79f000d
:101430000c06e8005fb29700840f5600f4ff3a00f4
:101440000006eb00dcb79f004fb097008000e9007a
:10145000c308dd0080a620000080400090b79f00f8
:10146000809e20000080400080b79f008093200075
:1014700080804000f1af9f008000eb00a1b79f008b
:101480009b0037005fb197000200e00011003200be
:10149000688066000f003a0000067800ffb09700f1
:1014a00000022000b3000700e10f400003003200fb
:1014b0003fb297000402e800b4b79f000c06e800b2
:1014c0005fb09700800f5600f4ff3a008000eb00f9
:1014d000d1b79f00e18066000d18a3000c00320018
:1014e000d00220000100e00001003a000080e90085
:1014f000ffb097009f000700e10f40000e00320090
:101500003fb197000201e800b2b79f000a00370020
:101510000100e00008003200ffb097000002200048
:1015200094000700e10f4000030032003fb2970033
:101530000402e800b4b79f00008c200080806600a1
:1015400000842000808f500009003a00ffb097000f
:101550000003200087000700e10f4000baff3200bf
:101560003fb697000c06e800bcb79f00b6ff3700f7
:1015700000882000808f5000b3ff3a00ffb0970032
:10158000000320007b000700e10f40000300320051
:101590003fb097000000e800b0b79f008005200032
:1015a0000d58a30001003a0080072000ffb097000b
:1015b00070000700e10f4000a3ff3200bfb09700aa
:1015c0008100e800b1b79f009fff370000042000b2
:1015d0006fb19700800f51002700320003003c00dc
:1015e0000200e000080032002c0037000008200054
:1015f0006fb29700800f520011003200000c2000e3
:10160000800f520025003a001fb697003c02be0032
:101610002c03be000800be000a01be00b1fc07009a
:10162000a4002000050020006033b800b4fc0700cf
:1016300004c3b30004424000e4d79f001700370002
:10164000fcb020000d58a30001003a000cb22000ad
:101650000fb097003002be002003be000800be009d
:101660000a01be009ffc07006f0060006c46780016
:10167000ecd79f0009003700ffa897003102be0099
:101680002103be000800be000a01be0095fc070051
:10169000674060000043b000e0d79f006fd1970023
:1016a0000200fb00ffb0970032000700e10f40008e
:1016b000030032003fb297000402e800b4b79f0075
:1016c0002fb697000c06e800acb79f001fb097003c
:1016d0006800500090b79f008fb09700e8805000de
:1016e00081b79f007fa9970068015100f2af9f006a
:1016f0002fb297004fb697008c0f5200b3ff3a00fd
:101700000d38a300100032005fb097000000e00029
:101710000d0034000006eb00ffb09700000220002f
:1017200014000700e10f400003003200bfb0970033
:101730008100e800b1b79f000c06e8005fb1970098
:10174000820f5600f4ff3a00be407800e1d79f00b8
:101750000104e00016fd3a003fb097004f07780003
:101760004f06be004f05be004f04be00ef01b100a2
:1017700000000600889fbe00000178000104780088
:10178000b10090000118a3003d0032000198a300b1
:1017900003003a00180090000000e00038003a0012
:1017a0000190a0003104980082047800f90fb20083
:1017b000180090000000e00002003a0028009000ad
:1017c000000c78003800900000b8a300060032003a
:1017d00000a8a30004003200210020006011b8001e
:1017e0000800780049000700b80090000100780068
:1017f00000b0a10030049800ea8f540005003a00c0
:101800000178a30003003a0088007800d00020008f
:10181000d8ff07009800900058009000808f50007b
:101820000b0032000100e800100498001800780056
:1018300009587800000c780011c0b30020b32000d4
:1018400001487800ea8f5400060032000f0037008c
:101850008800780009407800c600070080047800fe
:101860000a003700380090000088a300060032000c
:101870000800780095000700e10f400002003a00e0
:101880008084eb0001003700a900200009007800e7
:101890004f04be0000000600881f78000004780096
:1018a00040009000110020006011b8002afb0700e2
:1018b0000001be00180090000000e00002003d00a2
:1018c0000000eb0010049800280090000000e000e9
:1018d00008003200380090000098a3000500320094
:1018e00018009000cf80de00020040008380480096
:1018f0000400370018009000cf80de000000510087
:10190000818059004f047800000006000400fa00ae
:10191000889fbe008a9fbe008c1f7800000678005a
:1019200092bf9f00a3bf9f00010478003000900089
:101930000040a100300698002c0090000000e0005c
:1019400006003a004c00900003fb0700e10f400046
:10195000e08f480057003a0054003700e18f5000f4
:1019600005003200e28f50000c0032000100e00060
:10197000200032004d0037000c007800c6ff070041
:101980001fb99700afb9970002014000838148005a
:1019900092bf9f00a3bf9f00160037000c00780085
:1019a0004a0007004c009000110020006011b800b0
:1019b000e9fa07000005be004c009000880078009e
:1019c0006011b800e4fa07000004be004c0090006b
:1019d0008000eb000a01be00dffa07001fba970083
:1019e000afba97000402440085824c0094bf9f0068
:1019f000a5bf9f000c007800a7ff07001fba970043
:101a0000afba97000001520081815a0003003200f2
:101a10003c00900000b0a000300698003c0290000e
:101a20000408a3000f003200620362000d003a00b8
:101a3000e00f5100e08f59000a0035009c02900031
:101a40006128b900800f5100818f590005003c00ca
:101a500002805200100698001c0e4100060078001b
:101a6000150037000498a300050032001c00900008
:101a70000000e000020032000c00780013000700b4
:101a80008000eb0011069800ac029000050e780073
:101a90004c0090001fb99700afb99700aefa07004d
:101aa000e00f5000e08f580002003d000080eb0086
:101ab000010037000000eb004f0678004f05be0024
:101ac0004f04be000080fa0000000600881f780066
:101ad00000047800300090000008a30007003200e6
:101ae000800078000120b20004003a001104980040
:101af000a8009000010c7800170037000018a30020
:101b0000190032000098a30017003200a8009000ce
:101b10000100e00014003200180190000200e00013
:101b2000110032004800900098fa070098009000d9
:101b3000810f500003003200380090000003b30012
:101b4000300498000000eb0010049800280090007a
:101b5000000c7800380090000058a300020032000a
:101b60000080eb00010037000000eb004f0478001c
:101b7000000006000200fa00889fbe00a0ff9f0040
:101b80000104780031009000e200600004003a0097
:101b90000003b300300498001104980018003700c7
:101ba000d80490000900e0001a003a006c006000c0
:101bb00004003a003300070020049800e10f4000c1
:101bc00011003a0029049800590498003800900048
:101bd0000020a000300498001904980048009000ec
:101be00012002000e680570068fa0700e10f50005d
:101bf0001f003200380090000003b300300498004a
:101c00000080eb001c0037000020200050049800ea
:101c10000a00370018019000a800900048009000ca
:101c20005afa070098009000810f5000030032001c
:101c3000380090000003b30030049800100020002a
:101c40001004980028009000aff897000148780031
:101c500028009000000ce800b80090000080eb0025
:101c60000158a30004003a000190a000310498003c
:101c7000aff897000180fb004f04be000080fa001f
:101c800000000600a15980000100e00003003200be
:101c900011007800a05988000300370000202000c0
:101ca00071fa070080007800e18f400002003a00de
:101cb000906e2600b05988000100780000000600f0
:101cc000a159800001087800a05988000000060092
:020000040000fa
:0200000401f009
:04000c00f9ff0000f8
:020000040000fa
:0200000401f009
:04001000fbff0000f2
:020000040000fa
:0200000401f009
:040014007fff00006a
:020000040000fa
:10000800b2150000b2150000b2150000b2150000cc
:10001800b2150000b2150000b2150000b2150000bc
:10002800b2150000b2150000b2150000d40e000091
:10003800b2150000b2150000b2150000b21500009c
:10004800b2150000b2150000b21500001e14000021
:1000580086140000b2150000b2150000b2150000a9
:10006800b2150000b2150000b2150000b21500006c
:10007800b2150000b2150000b2150000b21500005c
:10008800b2150000b2150000b2150000b21500004c
:10009800b2150000b2150000b2150000b21500003c
:1000a800b2150000b2150000b2150000b21500002c
:1000b800b2150000b2150000b2150000b21500001c
:1000c800b2150000b2150000b2150000b21500000c
:1000d800b2150000b2150000b2150000b2150000fc
:1000e800b2150000b2150000b2150000b2150000ec
:1000f800b2150000b2150000b2150000b2150000dc
:10010800b2150000b2150000b2150000b2150000cb
:10011800b2150000b2150000b2150000b2150000bb
:10012800b2150000b2150000b2150000b2150000ab
:10013800b2150000b2150000b2150000b21500009b
:10014800b2150000b2150000b2150000b21500008b
:10015800b2150000b2150000b2150000b21500007b
:10016800b2150000b2150000b2150000b21500006b
:10017800b2150000b2150000b2150000b21500005b
:10018800b2150000b2150000b2150000b21500004b
:10019800b2150000b2150000b2150000b21500003b
:1001a800b2150000b2150000b2150000b21500002b
:1001b800b2150000b2150000b2150000b21500001b
:1001c800b2150000b2150000b2150000b21500000b
:1001d800b2150000b2150000b2150000b2150000fb
:1001e800b2150000b2150000b2150000b2150000eb
:0801f800b2150000b215000071
:020000040000fa
:10020800b2150000b2150000b2150000b2150000ca
:10021800b2150000b2150000b2150000b2150000ba
:10022800b2150000b2150000b2150000d40e00008f
:10023800b2150000b2150000b2150000b21500009a
:10024800b2150000b2150000b21500001e1400001f
:1002580086140000b2150000b2150000b2150000a7
:10026800b2150000b2150000b2150000b21500006a
:10027800b2150000b2150000b2150000b21500005a
:10028800b2150000b2150000b2150000b21500004a
:10029800b2150000b2150000b2150000b21500003a
:1002a800b2150000b2150000b2150000b21500002a
:1002b800b2150000b2150000b2150000b21500001a
:1002c800b2150000b2150000b2150000b21500000a
:1002d800b2150000b2150000b2150000b2150000fa
:1002e800b2150000b2150000b2150000b2150000ea
:1002f800b2150000b2150000b2150000b2150000da
:10030800b2150000b2150000b2150000b2150000c9
:10031800b2150000b2150000b2150000b2150000b9
:10032800b2150000b2150000b2150000b2150000a9
:10033800b2150000b2150000b2150000b215000099
:10034800b2150000b2150000b2150000b215000089
:10035800b2150000b2150000b2150000b215000079
:10036800b2150000b2150000b2150000b215000069
:10037800b2150000b2150000b2150000b215000059
:10038800b2150000b2150000b2150000b215000049
:10039800b2150000b2150000b2150000b215000039
:1003a800b2150000b2150000b2150000b215000029
:1003b800b2150000b2150000b2150000b215000019
:1003c800b2150000b2150000b2150000b215000009
:1003d800b2150000b2150000b2150000b2150000f9
:1003e800b2150000b2150000b2150000b2150000e9
:0803f800b2150000b21500006f
:020000040000fa
:101cd0004461000076690000642000003344000085
:101ce00020680000617200006477000061720000eb
:101cf00065200000636f00006e740000726f0000ca
:101d00006c2000006d6f0000647500006c650000c1
:101d1000206300006f6e00006e65000063740000b9
:101d200065640000206100006e6400002072000005
:101d30006561000064790000210a00000a0d0000be
:101d4000003300003620000067720000616400006c
:101d5000657200000d0a0000007300007765000046
:101d6000657000000d0a0000002000004c610000ba
:101d700073650000725f000053630000616e000035
:101d80006e650000725f000053630000616e00002a
:101d90005f6e00006f5f0000256400002e6f000082
:081da000626a00000d00000062
:020000040000fa
:101da800809fbe003400f80000002000a0018800d9
:101db8000000fa00704880000000e80070488800c1
:101dc8007148800090498000808f500001003500e4
:101dd800cde2a800914980008049800080804000c1
:101de80070488000808f500003003c00cde2a900bd
:101df8000000eb00704888008460a9000080fa00a9
:101e08003400f9004f00be00004006000200fa004e
:101e1800417420009140780000ceb30000c06000fb
:101e280044e7b700313a800000e02f0000806000ee
:101e38008102200001007000303a880044c7bf00ca
:101e4800f043b20044e7b70080002000403a880021
:101e5800210107001203070000902000d103200091
:101e68007ef9070080e628002603070000003700f7
:101e7800cb0207000000e000fdff3200cc020700a3
:101e8800004f7800f0c4b3009e4f100003003a00e2
:101e98004c000700f4000700f5ff370030c4b3001a
:101ea8009e4f100002003a0046000700f0ff37007e
:101eb80010c3b3009e4f100002003a004f00070005
:101ec800ebff370080c7b3009e4f100002003a00b6
:101ed8004a000700e6ff370020c3b3009e4f1000fa
:101ee80002003a0037000700e1ff370090c7b3004f
:101ef8009e4f100002003a0039000700dcff37004f
:101f080030c3b3009e4f100002003a003b000700a8
:101f1800d7ff370030c5b3009e4f100018003a00b5
:101f280010002000804888000d00370038000700a6
:101f38004e00070075000700a04980000000e80077
:101f4800a04988008a000700b1498000a0498000a4
:101f5800008050000000e00001003400a1000700ec
:101f6800a1498000b0498000808f5000efff350004
:101f78000000eb00a0498800bb000700bcff370049
:101f8800c0c2b3009e4f100006003a0010ea2800b5
:101f9800dc02070041022000200020002d0107007c
:101fa800b3ff3700e0c2b3009e4f1000b0ff3a0005
:101fb800d0ea2800d302070010c0b300e2000700ef
:101fc800abff37000000fa00cd42a900cdc2a9003e
:101fd800e02e2000804988000080fa0000000600fa
:101fe8000000fa00cd42a900cdc2a800c0442000dc
:101ff800804988000080fa00000006000000fa000e
:10200800cd42a800cdc2a9000080fa000000060059
:102018000000fa0050c0b300cb00070040c5b30071
:102028007e020700d0c0b3007c02070000a8210090
:102038006100200009f907005d0207008040780070
:1020480040c5b30080cf500004003a0000c4290006
:102058000100200001f907000200370010002000ed
:10206800804888000080fa00000006000200fa009c
:10207800cd42a80030c3b30068020700d0c0b30047
:10208800660207000300370000d42000310020005a
:10209800f2f80700460207008040780030c3b3001a
:1020a80080cf5000f8ff3a000000eb00000f7800e6
:1020b8000400370000902000d1032000e7f8070053
:1020c8001e0fe800800220009e0f1000f9ff340068
:1020d80070c4b30051020700d0c0b3004f0207001c
:1020e8000300370000d4200031002000dbf807008f
:1020f8002f0207008040780070c4b30080cf5000e2
:10210800f8ff3a000080fa00000006000000fa001c
:10211800a0498000801f780050eb2800801f7800bd
:10212800209120007efa0700e4875700a0c5b3007d
:102138003a0207002091200072020700d0c0b300c5
:10214800360207000300370000d4200031002000c9
:10215800c2f807001602070080407800a0c5b30047
:1021680080cf5000f8ff3a000080fa000000060017
:102178000000fa0050c4b30028020700d0c0b30022
:10218800260207000300370000d420003100200099
:10219800b2f80700060207008040780050c4b30078
:1021a80080cf5000f8ff3a0060c4b3001b0207005c
:1021b800d0c0b300190207000300370000d4200084
:1021c80031002000a5f80700f901070080407800d9
:1021d80060c4b30080cf5000f8ff3a000080fa00d6
:1021e800000006000000fa00410220002000200044
:1021f80098000700cd42a90020c3b30007020700da
:10220800d0c0b300050207000300370000d4200047
:102218003100200091f80700e501070080407800b0
:1022280020c3b30080cf5000f8ff3a0030c5b30098
:10223800fa010700d0c0b300f80107000300370017
:1022480000d420003100200084f80700d8010700de
:102258008040780030c5b30080cf5000f8ff3a00c6
:102268000080fa00000006000200fa000000eb00ff
:10227800000f780013003700cdc2bf000080fb00bc
:102288004200de000004a20061406000614060007e
:1022980061406000614060004201dd00d12c2000f7
:1022a80091407800b0cfb30000c0600002407000d9
:1022b800cde2b70000902000d103200067f80700a6
:1022c8001e0fe800300020009e0f1000eaff3400c7
:1022d8000080fa00000006000000fa000080eb0011
:1022e8006019880080c0210040168800c9e2a90052
:1022f800cde2a900c9c2a900c942a900cd42a900de
:10230800cdc2a9000000eb00601688003000200054
:1023180010368800416a20009140780000ceb30052
:1023280000c060003040b300a4e6b700800220007f
:10233800100888000481a90005e1a8009460a8009d
:102348000080fa00000006000400fa002047980008
:10235800cdc2a8000000eb00000f78000000eb00e1
:10236800000f78001d003700804880000000e00062
:102378001e00320006003700804980000000e80097
:102388008049880000a821006100200033f8070078
:1023980081498000b0442000808f5000f6ff34004f
:1023a800804880000000e00010003200060037007e
:1023b800804980000000e9008049880000a82100c9
:1023c8006100200025f8070081498000e02e2000e8
:1023d800808f5000f6ff3c001e0fe8002e40900052
:1023e8000000fb009e0f5000dfff3c00cdc2a9009b
:1023f8000080fa00000006000400fa0010079800a8
:102408009e009000400620000088b900420b200082
:10241800110009000200d800000f780009003700f9
:10242800cc82a80000a82100610020000bf807005a
:10243800cc82a90000a821006100200007f807004d
:102448001e0fe9001e00e000f5ff3c000080fa00c6
:10245800000006000800fa001007980021079800fd
:102468001e009000300798003e009000e20f5000d8
:10247800110032003e009000e20f500004003c00c2
:102488003e009000e10f50000800320013003700b2
:102498003e009000e40f50000a0032003e00900019
:1024a800e80f50000a0032000c003700cca2a90047
:1024b800ccc2a9000b003700cca2a800ccc2a9004e
:1024c80008003700cca2a900ccc2a800050037003c
:1024d800cca2a800ccc2a80002003700cca2a90058
:1024e800ccc2a9009e0090002e0090000088b90080
:1024f800000f78001e007800bfff07000080fa0078
:0425080000000600c9
:020000040000fa
:10250c00000800000e01000000000000300900006f
:10251c000800000002000000ee0220004e00000047
:10252c000a0000000e09000022000000000000005c
:10253c0038090000d001000002000000010000007a
:10254c000000000000000800000000000000000077
:10255c00004000000000000000000000000200002d
:10256c00000000000000000010000000000000004f
:10257c0000008000000000000000000000000400cb
:10258c00000000000000000000200000000000001f
:10259c00000000000001000000000000000000002e
:1025ac0008000000000000000000400000000000d7
:1025bc00000000000000020000000000000000000d
:1025cc00001000000000000000000000800000006f
:1025dc0000000000000000000400000000000000eb
:1025ec0000002000000000000000000000000100be
:1025fc0000000000000000000008000000000000c7
:10260c00000000004000000000000000000000007e
:10261c00020000000000000000001000000000009c
:10262c00000000000080010000000000000000001d
:10263c00001000000000000000000000000100007d
:10264c00000000000000000010000000000000006e
:10265c00000000000100000000000000000010005d
:10266c00000000000000000000000100000000005d
:10267c00000000000010000000000000000000003e
:10268c00000100000000000000000000100000002d
:10269c00000000000000000001000000000000002d
:1026ac00000010000000000000000000000001000d
:1026bc0000000000000000000010000000000000fe
:1026cc0000000000000100000000000000000000fd
:1026dc001001000000000000000000000a000000d3
:1026ec00000000000000640000000000000000007a
:1026fc0000e80300000000000000000010270000ac
:10270c00000000000000a000860100000000000096
:10271c00004042000f00000000000000809698006e
:10272c000000000000000000e1f5050000000000c2
:10273c000000ca009a3b00000000000000e40b00ff
:10274c005402000000000000e8764800170000006a
:10275c0000001000a5d4e8000000000000a07200ea
:10276c004e18090000000000407a1000f35a0000d7
:10277c0000008000c6a47e008d0300000000c10094
:10278c006ff2860023000000008a5d00784563002c
:10279c000100000064a7b300b6e00d000000e800e3
:1027ac0089042300c78a0000080b00002a000000df
:1027bc0002000000286e75006c6c2900003031009e
:1027cc003233340035363700383941004243440047
:1027dc00454600003031320033343500363738008e
:1027ec00396162006364650066000000320b000012
:1027fc000200000000000000340b0000020000008a
:10280c0000000000360b0000020000000000000079
:10281c00380b000002000000020000000100000064
:10282c003a0b000002000000000000000000000055
:020000040000fa
:10283c003600f800809fbe00821f78003400f8003c
:10284c0000002000a00188000400fa003011800074
:10285c0020479800ae40900040c5b30080cf500098
:10286c0003003a000000eb008048880002003700ab
:10287c001000200080488800ae40900030c4b300a7
:10288c0080cf500001003a000000fe008560a900d6
:10289c0060448000000f7800f00720009e0f1000ad
:1028ac0011003c001e0fe8009e0078006144880077
:1028bc0050448000000f78001e007800e6004000b5
:1028cc008088200000804000ae40900001487800d5
:1028dc001e00e80002082000110009000200d800c8
:1028ec008000fd00504488000080fa003400f9009c
:1028fc004f0178004f00be003600f9000040060082
:10290c003600f800809fbe00821f78003400f8006b
:10291c0000002000a00188000200fa008580a900b8
:10292c0030408000000f78001e00e00013003200e1
:10293c001e0fe9001e007800304088001040800017
:10294c00000f78001e007800e60040002080200078
:10295c0000804000104078000080fb0020118800af
:10296c001e00e80002082000110009000200d80037
:10297c008000fd0010408800020037000000eb00d2
:10298c00004088000080fa003400f9004f01780004
:10299c004f00be003600f900004006000000fa00af
:1029ac00604480000080fa00000006000400fa0079
:1029bc00604480000000e000fdff320040448000d5
:1029cc00000f78001e007800e60040008088200090
:1029dc000080400090407800214798001e00e800dd
:1029ec0002082000110009000200d8008000fd0040
:1029fc0040448800ff3ffc00604480000000e90078
:102a0c00604488000000fc002e4090000080fb0019
:102a1c000080fa00000006000400fa00204798002d
:102a2c0031408000f0072000808f5000fcff3c00fc
:102a3c0020408000000f78001e007800e600400067
:102a4c002080200000804000ae40900001487800bb
:102a5c001e00e80002082000110009000200d80046
:102a6c008000fd0020408800ff3ffc0030408000cb
:102a7c000000e80030408800004080000000e000ca
:102a8c0003003a0010002000004088008580a80058
:102a9c000000fc000080fa00000006000000fa00b4
:102aac009560a9009580a900301020004011880085
:102abc0021e2a8002342a8000000eb00304088006f
:102acc00304080002040880020408000104088006a
:102adc000000eb0060448800604480005044880093
:102aec0050448000404488000000eb000040880007
:102afc009560a8009580a8000080fa0000000600f0
:102b0c000600fa00100798001e009000104f780085
:102b1c001e407800c0ff07001e0090001040780097
:102b2c00404798004e4090000004e0000200320044
:102b3c0010c0b300404798004e4090009e0090009b
:102b4c008100e800110798000004e000eeff3a0055
:082b5c000080fa0000000600f1
:020000040000fa
:042b64000000fe006f
:00000001FF
